{
  "_format": "hh-sol-artifact-1",
  "contractName": "JobPosting",
  "sourceName": "contracts/JobPosting.sol",
  "abi": [
    {
      "inputs": [],
      "stateMutability": "nonpayable",
      "type": "constructor"
    },
    {
      "anonymous": false,
      "inputs": [
        {
          "indexed": true,
          "internalType": "bytes32",
          "name": "jobid",
          "type": "bytes32"
        },
        {
          "indexed": true,
          "internalType": "uint256",
          "name": "amount",
          "type": "uint256"
        }
      ],
      "name": "JobPublished",
      "type": "event"
    },
    {
      "anonymous": false,
      "inputs": [
        {
          "indexed": true,
          "internalType": "bytes32",
          "name": "jobid",
          "type": "bytes32"
        },
        {
          "indexed": true,
          "internalType": "address",
          "name": "employer",
          "type": "address"
        }
      ],
      "name": "JobUnpublished",
      "type": "event"
    },
    {
      "inputs": [
        {
          "internalType": "bytes32",
          "name": "jobid",
          "type": "bytes32"
        }
      ],
      "name": "getJobInfo",
      "outputs": [
        {
          "components": [
            {
              "internalType": "bytes32",
              "name": "jobid",
              "type": "bytes32"
            },
            {
              "internalType": "address",
              "name": "employer",
              "type": "address"
            },
            {
              "internalType": "uint256",
              "name": "rolesToFill",
              "type": "uint256"
            },
            {
              "internalType": "address[]",
              "name": "applicants",
              "type": "address[]"
            },
            {
              "internalType": "contract IERC20",
              "name": "token",
              "type": "address"
            },
            {
              "internalType": "uint256",
              "name": "bountyAmount",
              "type": "uint256"
            },
            {
              "internalType": "bool",
              "name": "bountySent",
              "type": "bool"
            }
          ],
          "internalType": "struct JobCore.Job",
          "name": "",
          "type": "tuple"
        }
      ],
      "stateMutability": "view",
      "type": "function"
    },
    {
      "inputs": [
        {
          "internalType": "uint256",
          "name": "rolesToFill",
          "type": "uint256"
        },
        {
          "internalType": "uint256",
          "name": "bountyAmount",
          "type": "uint256"
        },
        {
          "internalType": "contract IERC20",
          "name": "token",
          "type": "address"
        }
      ],
      "name": "publishJob",
      "outputs": [],
      "stateMutability": "payable",
      "type": "function"
    },
    {
      "inputs": [
        {
          "internalType": "bytes32",
          "name": "jobid",
          "type": "bytes32"
        }
      ],
      "name": "unpublishJob",
      "outputs": [],
      "stateMutability": "payable",
      "type": "function"
    }
  ],
  "bytecode": "0x608060405234801561001057600080fd5b50611047806100206000396000f3fe6080604052600436106100345760003560e01c80636164626a146100395780636f87cb1014610076578063cbc0569114610092575b600080fd5b34801561004557600080fd5b50610060600480360381019061005b9190610b9d565b6100ae565b60405161006d9190610e9d565b60405180910390f35b610090600480360381019061008b9190610bc6565b61024d565b005b6100ac60048036038101906100a79190610b9d565b61059c565b005b6100b6610a28565b6000808381526020019081526020016000206040518060e0016040529081600082015481526020016001820160009054906101000a900473ffffffffffffffffffffffffffffffffffffffff1673ffffffffffffffffffffffffffffffffffffffff1673ffffffffffffffffffffffffffffffffffffffff16815260200160028201548152602001600382018054806020026020016040519081016040528092919081815260200182805480156101c257602002820191906000526020600020905b8160009054906101000a900473ffffffffffffffffffffffffffffffffffffffff1673ffffffffffffffffffffffffffffffffffffffff1681526020019060010190808311610178575b505050505081526020016004820160009054906101000a900473ffffffffffffffffffffffffffffffffffffffff1673ffffffffffffffffffffffffffffffffffffffff1673ffffffffffffffffffffffffffffffffffffffff168152602001600582015481526020016006820160009054906101000a900460ff1615151515815250509050919050565b600082141561029b57600034141561029a576040517f08c379a000000000000000000000000000000000000000000000000000000000815260040161029190610e7d565b60405180910390fd5b5b60003414156102e95760008214156102e8576040517f08c379a00000000000000000000000000000000000000000000000000000000081526004016102df90610e7d565b60405180910390fd5b5b600033834260405160200161030093929190610e20565b6040516020818303038152906040528051906020012090506000600167ffffffffffffffff81111561035b577f4e487b7100000000000000000000000000000000000000000000000000000000600052604160045260246000fd5b6040519080825280602002602001820160405280156103895781602001602082028036833780820191505090505b50905033816000815181106103c7577f4e487b7100000000000000000000000000000000000000000000000000000000600052603260045260246000fd5b602002602001019073ffffffffffffffffffffffffffffffffffffffff16908173ffffffffffffffffffffffffffffffffffffffff168152505060006040518060e001604052808481526020013373ffffffffffffffffffffffffffffffffffffffff1681526020018781526020018381526020018573ffffffffffffffffffffffffffffffffffffffff168152602001868152602001600015158152509050806000808581526020019081526020016000206000820151816000015560208201518160010160006101000a81548173ffffffffffffffffffffffffffffffffffffffff021916908373ffffffffffffffffffffffffffffffffffffffff1602179055506040820151816002015560608201518160030190805190602001906104f1929190610a96565b5060808201518160040160006101000a81548173ffffffffffffffffffffffffffffffffffffffff021916908373ffffffffffffffffffffffffffffffffffffffff16021790555060a0820151816005015560c08201518160060160006101000a81548160ff02191690831515021790555090505084837fd6b904fd3ae1baa8f247b028f5047e83985477d2517a491f71aa56ae28751ed860405160405180910390a3505050505050565b8060008060008381526020019081526020016000206040518060e0016040529081600082015481526020016001820160009054906101000a900473ffffffffffffffffffffffffffffffffffffffff1673ffffffffffffffffffffffffffffffffffffffff1673ffffffffffffffffffffffffffffffffffffffff16815260200160028201548152602001600382018054806020026020016040519081016040528092919081815260200182805480156106ab57602002820191906000526020600020905b8160009054906101000a900473ffffffffffffffffffffffffffffffffffffffff1673ffffffffffffffffffffffffffffffffffffffff1681526020019060010190808311610661575b505050505081526020016004820160009054906101000a900473ffffffffffffffffffffffffffffffffffffffff1673ffffffffffffffffffffffffffffffffffffffff1673ffffffffffffffffffffffffffffffffffffffff168152602001600582015481526020016006820160009054906101000a900460ff1615151515815250509050806020015173ffffffffffffffffffffffffffffffffffffffff163373ffffffffffffffffffffffffffffffffffffffff16146107a3576040517f08c379a000000000000000000000000000000000000000000000000000000000815260040161079a90610e5d565b60405180910390fd5b6000808481526020019081526020016000206000808201600090556001820160006101000a81549073ffffffffffffffffffffffffffffffffffffffff021916905560028201600090556003820160006107fd9190610b20565b6004820160006101000a81549073ffffffffffffffffffffffffffffffffffffffff021916905560058201600090556006820160006101000a81549060ff0219169055505060008060008581526020019081526020016000206040518060e0016040529081600082015481526020016001820160009054906101000a900473ffffffffffffffffffffffffffffffffffffffff1673ffffffffffffffffffffffffffffffffffffffff1673ffffffffffffffffffffffffffffffffffffffff168152602001600282015481526020016003820180548060200260200160405190810160405280929190818152602001828054801561095057602002820191906000526020600020905b8160009054906101000a900473ffffffffffffffffffffffffffffffffffffffff1673ffffffffffffffffffffffffffffffffffffffff1681526020019060010190808311610906575b505050505081526020016004820160009054906101000a900473ffffffffffffffffffffffffffffffffffffffff1673ffffffffffffffffffffffffffffffffffffffff1673ffffffffffffffffffffffffffffffffffffffff168152602001600582015481526020016006820160009054906101000a900460ff1615151515815250509050806020015173ffffffffffffffffffffffffffffffffffffffff1681600001517f90a78c6d8bcde104f21755d88205dd0b9122dd7177d5106e6537155685fe8ff260405160405180910390a350505050565b6040518060e0016040528060008019168152602001600073ffffffffffffffffffffffffffffffffffffffff1681526020016000815260200160608152602001600073ffffffffffffffffffffffffffffffffffffffff168152602001600081526020016000151581525090565b828054828255906000526020600020908101928215610b0f579160200282015b82811115610b0e5782518260006101000a81548173ffffffffffffffffffffffffffffffffffffffff021916908373ffffffffffffffffffffffffffffffffffffffff16021790555091602001919060010190610ab6565b5b509050610b1c9190610b41565b5090565b5080546000825590600052602060002090810190610b3e9190610b41565b50565b5b80821115610b5a576000816000905550600101610b42565b5090565b600081359050610b6d81610fcc565b92915050565b600081359050610b8281610fe3565b92915050565b600081359050610b9781610ffa565b92915050565b600060208284031215610baf57600080fd5b6000610bbd84828501610b5e565b91505092915050565b600080600060608486031215610bdb57600080fd5b6000610be986828701610b88565b9350506020610bfa86828701610b88565b9250506040610c0b86828701610b73565b9150509250925092565b6000610c218383610c2d565b60208301905092915050565b610c3681610f09565b82525050565b610c4d610c4882610f09565b610f91565b82525050565b6000610c5e82610ecf565b610c688185610ee7565b9350610c7383610ebf565b8060005b83811015610ca4578151610c8b8882610c15565b9750610c9683610eda565b925050600181019050610c77565b5085935050505092915050565b610cba81610f1b565b82525050565b610cc981610f27565b82525050565b610cd881610f6d565b82525050565b6000610ceb601883610ef8565b91507f596f7520617265206e6f742074686520656d706c6f79657200000000000000006000830152602082019050919050565b6000610d2b601483610ef8565b91507f426f756e74792063616e2774206265207a65726f0000000000000000000000006000830152602082019050919050565b600060e083016000830151610d766000860182610cc0565b506020830151610d896020860182610c2d565b506040830151610d9c6040860182610dfa565b5060608301518482036060860152610db48282610c53565b9150506080830151610dc96080860182610ccf565b5060a0830151610ddc60a0860182610dfa565b5060c0830151610def60c0860182610cb1565b508091505092915050565b610e0381610f63565b82525050565b610e1a610e1582610f63565b610fb5565b82525050565b6000610e2c8286610c3c565b601482019150610e3c8285610e09565b602082019150610e4c8284610e09565b602082019150819050949350505050565b60006020820190508181036000830152610e7681610cde565b9050919050565b60006020820190508181036000830152610e9681610d1e565b9050919050565b60006020820190508181036000830152610eb78184610d5e565b905092915050565b6000819050602082019050919050565b600081519050919050565b6000602082019050919050565b600082825260208201905092915050565b600082825260208201905092915050565b6000610f1482610f43565b9050919050565b60008115159050919050565b6000819050919050565b6000610f3c82610f09565b9050919050565b600073ffffffffffffffffffffffffffffffffffffffff82169050919050565b6000819050919050565b6000610f7882610f7f565b9050919050565b6000610f8a82610f43565b9050919050565b6000610f9c82610fa3565b9050919050565b6000610fae82610fbf565b9050919050565b6000819050919050565b60008160601b9050919050565b610fd581610f27565b8114610fe057600080fd5b50565b610fec81610f31565b8114610ff757600080fd5b50565b61100381610f63565b811461100e57600080fd5b5056fea264697066735822122019b5b0e20b7dd130281e53fcc4c5254d0df06db1468aa4ef5a1afe3abc90600c64736f6c63430008000033",
  "linkReferences": {},
  "deployedLinkReferences": {}
}