{
  "_format": "hh-sol-artifact-1",
  "contractName": "JobsCore",
  "sourceName": "contracts/JobsCore.sol",
  "abi": [
    {
      "inputs": [],
      "stateMutability": "nonpayable",
      "type": "constructor"
    },
    {
      "anonymous": false,
      "inputs": [
        {
          "indexed": true,
          "internalType": "bytes32",
          "name": "id",
          "type": "bytes32"
        },
        {
          "indexed": true,
          "internalType": "uint256",
          "name": "amount",
          "type": "uint256"
        }
      ],
      "name": "CancellationSent",
      "type": "event"
    },
    {
      "anonymous": false,
      "inputs": [
        {
          "indexed": true,
          "internalType": "bytes32",
          "name": "id",
          "type": "bytes32"
        },
        {
          "indexed": true,
          "internalType": "uint256",
          "name": "amount",
          "type": "uint256"
        }
      ],
      "name": "SubmissionSent",
      "type": "event"
    },
    {
      "inputs": [
        {
          "internalType": "bytes32",
          "name": "id",
          "type": "bytes32"
        }
      ],
      "name": "cancel",
      "outputs": [],
      "stateMutability": "payable",
      "type": "function"
    },
    {
      "inputs": [
        {
          "internalType": "bytes32",
          "name": "id",
          "type": "bytes32"
        }
      ],
      "name": "getSubmissionInfo",
      "outputs": [
        {
          "components": [
            {
              "internalType": "bytes32",
              "name": "id",
              "type": "bytes32"
            },
            {
              "internalType": "address",
              "name": "employer",
              "type": "address"
            },
            {
              "internalType": "address",
              "name": "applicants",
              "type": "address"
            },
            {
              "internalType": "contract IERC20",
              "name": "token",
              "type": "address"
            },
            {
              "internalType": "uint256",
              "name": "amount",
              "type": "uint256"
            },
            {
              "internalType": "bool",
              "name": "paid",
              "type": "bool"
            },
            {
              "internalType": "string",
              "name": "title",
              "type": "string"
            },
            {
              "internalType": "string",
              "name": "description",
              "type": "string"
            },
            {
              "internalType": "enum JobsCore.LocationSate",
              "name": "currentState",
              "type": "uint8"
            }
          ],
          "internalType": "struct JobsCore.Job",
          "name": "",
          "type": "tuple"
        }
      ],
      "stateMutability": "view",
      "type": "function"
    },
    {
      "inputs": [
        {
          "internalType": "address payable",
          "name": "employer",
          "type": "address"
        },
        {
          "internalType": "uint256",
          "name": "amount",
          "type": "uint256"
        },
        {
          "internalType": "contract IERC20",
          "name": "token",
          "type": "address"
        },
        {
          "internalType": "string",
          "name": "title",
          "type": "string"
        },
        {
          "internalType": "string",
          "name": "description",
          "type": "string"
        }
      ],
      "name": "submit",
      "outputs": [],
      "stateMutability": "payable",
      "type": "function"
    }
  ],
  "bytecode": "0x608060405234801561001057600080fd5b50611e15806100206000396000f3fe6080604052600436106100345760003560e01c80630e3b90a914610039578063394a3bdc14610076578063c4d252f514610092575b600080fd5b34801561004557600080fd5b50610060600480360381019061005b91906115be565b6100ae565b60405161006d9190611a49565b60405180910390f35b610090600480360381019061008b91906114ee565b6103b7565b005b6100ac60048036038101906100a791906115be565b610823565b005b6100b66112af565b60008083815260200190815260200160002060405180610120016040529081600082015481526020016001820160009054906101000a900473ffffffffffffffffffffffffffffffffffffffff1673ffffffffffffffffffffffffffffffffffffffff1673ffffffffffffffffffffffffffffffffffffffff1681526020016002820160009054906101000a900473ffffffffffffffffffffffffffffffffffffffff1673ffffffffffffffffffffffffffffffffffffffff1673ffffffffffffffffffffffffffffffffffffffff1681526020016003820160009054906101000a900473ffffffffffffffffffffffffffffffffffffffff1673ffffffffffffffffffffffffffffffffffffffff1673ffffffffffffffffffffffffffffffffffffffff168152602001600482015481526020016005820160009054906101000a900460ff1615151515815260200160068201805461021590611c3b565b80601f016020809104026020016040519081016040528092919081815260200182805461024190611c3b565b801561028e5780601f106102635761010080835404028352916020019161028e565b820191906000526020600020905b81548152906001019060200180831161027157829003601f168201915b505050505081526020016007820180546102a790611c3b565b80601f01602080910402602001604051908101604052809291908181526020018280546102d390611c3b565b80156103205780601f106102f557610100808354040283529160200191610320565b820191906000526020600020905b81548152906001019060200180831161030357829003601f168201915b505050505081526020016008820160009054906101000a900460ff166002811115610374577f4e487b7100000000000000000000000000000000000000000000000000000000600052602160045260246000fd5b60028111156103ac577f4e487b7100000000000000000000000000000000000000000000000000000000600052602160045260246000fd5b815250509050919050565b600034146104745760008573ffffffffffffffffffffffffffffffffffffffff16346040516103e590611946565b60006040518083038185875af1925050503d8060008114610422576040519150601f19603f3d011682016040523d82523d6000602084013e610427565b606091505b505090508061046b576040517f08c379a0000000000000000000000000000000000000000000000000000000008152600401610462906119c9565b60405180910390fd5b34945050610549565b60008373ffffffffffffffffffffffffffffffffffffffff166323b872dd3388886040518463ffffffff1660e01b81526004016104b39392919061195b565b602060405180830381600087803b1580156104cd57600080fd5b505af11580156104e1573d6000803e3d6000fd5b505050506040513d601f19601f820116820180604052508101906105059190611595565b905080610547576040517f08c379a000000000000000000000000000000000000000000000000000000000815260040161053e90611a09565b60405180910390fd5b505b60008533864260405160200161056294939291906118f8565b60405160208183030381529060405280519060200120905060006040518061012001604052808381526020013373ffffffffffffffffffffffffffffffffffffffff1681526020013373ffffffffffffffffffffffffffffffffffffffff1681526020018673ffffffffffffffffffffffffffffffffffffffff16815260200187815260200160001515815260200185815260200184815260200160006002811115610637577f4e487b7100000000000000000000000000000000000000000000000000000000600052602160045260246000fd5b8152509050806000808481526020019081526020016000206000820151816000015560208201518160010160006101000a81548173ffffffffffffffffffffffffffffffffffffffff021916908373ffffffffffffffffffffffffffffffffffffffff16021790555060408201518160020160006101000a81548173ffffffffffffffffffffffffffffffffffffffff021916908373ffffffffffffffffffffffffffffffffffffffff16021790555060608201518160030160006101000a81548173ffffffffffffffffffffffffffffffffffffffff021916908373ffffffffffffffffffffffffffffffffffffffff1602179055506080820151816004015560a08201518160050160006101000a81548160ff02191690831515021790555060c082015181600601908051906020019061077492919061137a565b5060e082015181600701908051906020019061079192919061137a565b506101008201518160080160006101000a81548160ff021916908360028111156107e4577f4e487b7100000000000000000000000000000000000000000000000000000000600052602160045260246000fd5b021790555090505085827f85859bfe93101f2b15cc219e9eecb698c7d57cebc080e43e92f9c0ad30ec5d6560405160405180910390a350505050505050565b80600080600083815260200190815260200160002060405180610120016040529081600082015481526020016001820160009054906101000a900473ffffffffffffffffffffffffffffffffffffffff1673ffffffffffffffffffffffffffffffffffffffff1673ffffffffffffffffffffffffffffffffffffffff1681526020016002820160009054906101000a900473ffffffffffffffffffffffffffffffffffffffff1673ffffffffffffffffffffffffffffffffffffffff1673ffffffffffffffffffffffffffffffffffffffff1681526020016003820160009054906101000a900473ffffffffffffffffffffffffffffffffffffffff1673ffffffffffffffffffffffffffffffffffffffff1673ffffffffffffffffffffffffffffffffffffffff168152602001600482015481526020016005820160009054906101000a900460ff1615151515815260200160068201805461098590611c3b565b80601f01602080910402602001604051908101604052809291908181526020018280546109b190611c3b565b80156109fe5780601f106109d3576101008083540402835291602001916109fe565b820191906000526020600020905b8154815290600101906020018083116109e157829003601f168201915b50505050508152602001600782018054610a1790611c3b565b80601f0160208091040260200160405190810160405280929190818152602001828054610a4390611c3b565b8015610a905780601f10610a6557610100808354040283529160200191610a90565b820191906000526020600020905b815481529060010190602001808311610a7357829003601f168201915b505050505081526020016008820160009054906101000a900460ff166002811115610ae4577f4e487b7100000000000000000000000000000000000000000000000000000000600052602160045260246000fd5b6002811115610b1c577f4e487b7100000000000000000000000000000000000000000000000000000000600052602160045260246000fd5b815250509050806020015173ffffffffffffffffffffffffffffffffffffffff163373ffffffffffffffffffffffffffffffffffffffff1614610b94576040517f08c379a0000000000000000000000000000000000000000000000000000000008152600401610b8b906119e9565b60405180910390fd5b600080600085815260200190815260200160002060405180610120016040529081600082015481526020016001820160009054906101000a900473ffffffffffffffffffffffffffffffffffffffff1673ffffffffffffffffffffffffffffffffffffffff1673ffffffffffffffffffffffffffffffffffffffff1681526020016002820160009054906101000a900473ffffffffffffffffffffffffffffffffffffffff1673ffffffffffffffffffffffffffffffffffffffff1673ffffffffffffffffffffffffffffffffffffffff1681526020016003820160009054906101000a900473ffffffffffffffffffffffffffffffffffffffff1673ffffffffffffffffffffffffffffffffffffffff1673ffffffffffffffffffffffffffffffffffffffff168152602001600482015481526020016005820160009054906101000a900460ff16151515158152602001600682018054610cf590611c3b565b80601f0160208091040260200160405190810160405280929190818152602001828054610d2190611c3b565b8015610d6e5780601f10610d4357610100808354040283529160200191610d6e565b820191906000526020600020905b815481529060010190602001808311610d5157829003601f168201915b50505050508152602001600782018054610d8790611c3b565b80601f0160208091040260200160405190810160405280929190818152602001828054610db390611c3b565b8015610e005780601f10610dd557610100808354040283529160200191610e00565b820191906000526020600020905b815481529060010190602001808311610de357829003601f168201915b505050505081526020016008820160009054906101000a900460ff166002811115610e54577f4e487b7100000000000000000000000000000000000000000000000000000000600052602160045260246000fd5b6002811115610e8c577f4e487b7100000000000000000000000000000000000000000000000000000000600052602160045260246000fd5b815250509050600115158160a0015115151415610ede576040517f08c379a0000000000000000000000000000000000000000000000000000000008152600401610ed590611a29565b60405180910390fd5b600073ffffffffffffffffffffffffffffffffffffffff16816060015173ffffffffffffffffffffffffffffffffffffffff161415610fd1576000816040015173ffffffffffffffffffffffffffffffffffffffff168260800151604051610f4590611946565b60006040518083038185875af1925050503d8060008114610f82576040519150601f19603f3d011682016040523d82523d6000602084013e610f87565b606091505b5050905080610fcb576040517f08c379a0000000000000000000000000000000000000000000000000000000008152600401610fc2906119c9565b60405180910390fd5b506110b2565b6000816060015173ffffffffffffffffffffffffffffffffffffffff166323b872dd33846040015185608001516040518463ffffffff1660e01b815260040161101c93929190611992565b602060405180830381600087803b15801561103657600080fd5b505af115801561104a573d6000803e3d6000fd5b505050506040513d601f19601f8201168201806040525081019061106e9190611595565b9050806110b0576040517f08c379a00000000000000000000000000000000000000000000000000000000081526004016110a790611a09565b60405180910390fd5b505b60018160a0019015159081151581525050806000808681526020019081526020016000206000820151816000015560208201518160010160006101000a81548173ffffffffffffffffffffffffffffffffffffffff021916908373ffffffffffffffffffffffffffffffffffffffff16021790555060408201518160020160006101000a81548173ffffffffffffffffffffffffffffffffffffffff021916908373ffffffffffffffffffffffffffffffffffffffff16021790555060608201518160030160006101000a81548173ffffffffffffffffffffffffffffffffffffffff021916908373ffffffffffffffffffffffffffffffffffffffff1602179055506080820151816004015560a08201518160050160006101000a81548160ff02191690831515021790555060c08201518160060190805190602001906111fb92919061137a565b5060e082015181600701908051906020019061121892919061137a565b506101008201518160080160006101000a81548160ff0219169083600281111561126b577f4e487b7100000000000000000000000000000000000000000000000000000000600052602160045260246000fd5b0217905550905050806080015181600001517f05aa4fa7750fe7389c7b1a078fd0ccd299022253114b6926aff0a4f69d20050160405160405180910390a350505050565b60405180610120016040528060008019168152602001600073ffffffffffffffffffffffffffffffffffffffff168152602001600073ffffffffffffffffffffffffffffffffffffffff168152602001600073ffffffffffffffffffffffffffffffffffffffff16815260200160008152602001600015158152602001606081526020016060815260200160006002811115611374577f4e487b7100000000000000000000000000000000000000000000000000000000600052602160045260246000fd5b81525090565b82805461138690611c3b565b90600052602060002090601f0160209004810192826113a857600085556113ef565b82601f106113c157805160ff19168380011785556113ef565b828001600101855582156113ef579182015b828111156113ee5782518255916020019190600101906113d3565b5b5090506113fc9190611400565b5090565b5b80821115611419576000816000905550600101611401565b5090565b600061143061142b84611a9c565b611a6b565b90508281526020810184848401111561144857600080fd5b611453848285611bf9565b509392505050565b60008135905061146a81611d6c565b92915050565b60008151905061147f81611d83565b92915050565b60008135905061149481611d9a565b92915050565b6000813590506114a981611db1565b92915050565b600082601f8301126114c057600080fd5b81356114d084826020860161141d565b91505092915050565b6000813590506114e881611dc8565b92915050565b600080600080600060a0868803121561150657600080fd5b60006115148882890161145b565b9550506020611525888289016114d9565b94505060406115368882890161149a565b935050606086013567ffffffffffffffff81111561155357600080fd5b61155f888289016114af565b925050608086013567ffffffffffffffff81111561157c57600080fd5b611588888289016114af565b9150509295509295909350565b6000602082840312156115a757600080fd5b60006115b584828501611470565b91505092915050565b6000602082840312156115d057600080fd5b60006115de84828501611485565b91505092915050565b6115f081611b8d565b82525050565b61160761160282611b16565b611c7f565b82525050565b61161681611b04565b82525050565b61162581611b04565b82525050565b61163c61163782611b04565b611c6d565b82525050565b61164b81611b28565b82525050565b61165a81611b34565b82525050565b61166981611b9f565b82525050565b61167881611bc3565b82525050565b600061168982611acc565b6116938185611ae2565b93506116a3818560208601611c08565b6116ac81611d3a565b840191505092915050565b60006116c4601483611af3565b91507f4661696c656420746f2073656e642045746865720000000000000000000000006000830152602082019050919050565b6000611704601883611af3565b91507f596f7520617265206e6f742074686520656d706c6f79657200000000000000006000830152602082019050919050565b6000611744601b83611af3565b91507f4661696c656420746f2073656e64204552432d323020546f6b656e00000000006000830152602082019050919050565b6000611784602383611af3565b91507f596f75206861766520616c72656164792072657175657374656420612072656660008301527f756e6400000000000000000000000000000000000000000000000000000000006020830152604082019050919050565b60006117ea600083611ad7565b9150600082019050919050565b6000610120830160008301516118106000860182611651565b506020830151611823602086018261160d565b506040830151611836604086018261160d565b5060608301516118496060860182611660565b50608083015161185c60808601826118c3565b5060a083015161186f60a0860182611642565b5060c083015184820360c0860152611887828261167e565b91505060e083015184820360e08601526118a1828261167e565b9150506101008301516118b861010086018261166f565b508091505092915050565b6118cc81611b83565b82525050565b6118db81611b83565b82525050565b6118f26118ed82611b83565b611ca3565b82525050565b600061190482876115f6565b601482019150611914828661162b565b60148201915061192482856118e1565b60208201915061193482846118e1565b60208201915081905095945050505050565b6000611951826117dd565b9150819050919050565b6000606082019050611970600083018661161c565b61197d60208301856115e7565b61198a60408301846118d2565b949350505050565b60006060820190506119a7600083018661161c565b6119b4602083018561161c565b6119c160408301846118d2565b949350505050565b600060208201905081810360008301526119e2816116b7565b9050919050565b60006020820190508181036000830152611a02816116f7565b9050919050565b60006020820190508181036000830152611a2281611737565b9050919050565b60006020820190508181036000830152611a4281611777565b9050919050565b60006020820190508181036000830152611a6381846117f7565b905092915050565b6000604051905081810181811067ffffffffffffffff82111715611a9257611a91611d0b565b5b8060405250919050565b600067ffffffffffffffff821115611ab757611ab6611d0b565b5b601f19601f8301169050602081019050919050565b600081519050919050565b600081905092915050565b600082825260208201905092915050565b600082825260208201905092915050565b6000611b0f82611b63565b9050919050565b6000611b2182611b63565b9050919050565b60008115159050919050565b6000819050919050565b6000611b4982611b04565b9050919050565b6000819050611b5e82611d58565b919050565b600073ffffffffffffffffffffffffffffffffffffffff82169050919050565b6000819050919050565b6000611b9882611bd5565b9050919050565b6000611baa82611bb1565b9050919050565b6000611bbc82611b63565b9050919050565b6000611bce82611b50565b9050919050565b6000611be082611be7565b9050919050565b6000611bf282611b63565b9050919050565b82818337600083830152505050565b60005b83811015611c26578082015181840152602081019050611c0b565b83811115611c35576000848401525b50505050565b60006002820490506001821680611c5357607f821691505b60208210811415611c6757611c66611cdc565b5b50919050565b6000611c7882611c91565b9050919050565b6000611c8a82611c91565b9050919050565b6000611c9c82611d4b565b9050919050565b6000819050919050565b7f4e487b7100000000000000000000000000000000000000000000000000000000600052602160045260246000fd5b7f4e487b7100000000000000000000000000000000000000000000000000000000600052602260045260246000fd5b7f4e487b7100000000000000000000000000000000000000000000000000000000600052604160045260246000fd5b6000601f19601f8301169050919050565b60008160601b9050919050565b60038110611d6957611d68611cad565b5b50565b611d7581611b16565b8114611d8057600080fd5b50565b611d8c81611b28565b8114611d9757600080fd5b50565b611da381611b34565b8114611dae57600080fd5b50565b611dba81611b3e565b8114611dc557600080fd5b50565b611dd181611b83565b8114611ddc57600080fd5b5056fea26469706673582212208476151067d39ec769f53dc6ff7a49ba9513b2e931117f2260b1d1c8f4865e5164736f6c63430008000033",
  "linkReferences": {},
  "deployedLinkReferences": {}
}