{
  "_format": "hh-sol-artifact-1",
  "contractName": "JobPosting",
  "sourceName": "contracts/JobApplication.sol",
  "abi": [
    {
      "inputs": [
        {
          "internalType": "address",
          "name": "applicantAddress",
          "type": "address"
        },
        {
          "internalType": "bytes32",
          "name": "jobid",
          "type": "bytes32"
        },
        {
          "internalType": "string",
          "name": "status",
          "type": "string"
        }
      ],
      "name": "changeApplicationStatus",
      "outputs": [],
      "stateMutability": "nonpayable",
      "type": "function"
    },
    {
      "inputs": [
        {
          "internalType": "bytes32",
          "name": "jobid",
          "type": "bytes32"
        }
      ],
      "name": "claimBounty",
      "outputs": [],
      "stateMutability": "nonpayable",
      "type": "function"
    },
    {
      "inputs": [
        {
          "internalType": "bytes32",
          "name": "jobid",
          "type": "bytes32"
        }
      ],
      "name": "getMyApplicants",
      "outputs": [
        {
          "internalType": "address[]",
          "name": "",
          "type": "address[]"
        }
      ],
      "stateMutability": "view",
      "type": "function"
    },
    {
      "inputs": [],
      "name": "getMyApplications",
      "outputs": [],
      "stateMutability": "nonpayable",
      "type": "function"
    },
    {
      "inputs": [
        {
          "internalType": "bytes32",
          "name": "jobid",
          "type": "bytes32"
        }
      ],
      "name": "newApplcation",
      "outputs": [],
      "stateMutability": "nonpayable",
      "type": "function"
    }
  ],
  "bytecode": "0x608060405234801561001057600080fd5b50611213806100206000396000f3fe608060405234801561001057600080fd5b50600436106100575760003560e01c8063853aff911461005c5780639f3769be14610066578063ed25c98714610082578063f211e5ce1461009e578063f7acd12d146100ba575b600080fd5b6100646100ea565b005b610080600480360381019061007b9190610d33565b6100ec565b005b61009c60048036038101906100979190610d33565b6105ac565b005b6100b860048036038101906100b39190610ca3565b6109ad565b005b6100d460048036038101906100cf9190610d33565b6109b2565b6040516100e19190610f4b565b60405180910390f35b565b60008060008381526020019081526020016000206040518060e0016040529081600082015481526020016001820160009054906101000a900473ffffffffffffffffffffffffffffffffffffffff1673ffffffffffffffffffffffffffffffffffffffff1673ffffffffffffffffffffffffffffffffffffffff16815260200160028201548152602001600382018054806020026020016040519081016040528092919081815260200182805480156101fa57602002820191906000526020600020905b8160009054906101000a900473ffffffffffffffffffffffffffffffffffffffff1673ffffffffffffffffffffffffffffffffffffffff16815260200190600101908083116101b0575b505050505081526020016004820160009054906101000a900473ffffffffffffffffffffffffffffffffffffffff1673ffffffffffffffffffffffffffffffffffffffff1673ffffffffffffffffffffffffffffffffffffffff168152602001600582015481526020016006820160009054906101000a900460ff1615151515815250509050600115158160c00151151514156102cc576040517f08c379a00000000000000000000000000000000000000000000000000000000081526004016102c390610fad565b60405180910390fd5b600073ffffffffffffffffffffffffffffffffffffffff16816080015173ffffffffffffffffffffffffffffffffffffffff1614156103bb5760003073ffffffffffffffffffffffffffffffffffffffff168260a0015160405161032f90610eff565b60006040518083038185875af1925050503d806000811461036c576040519150601f19603f3d011682016040523d82523d6000602084013e610371565b606091505b50509050806103b5576040517f08c379a00000000000000000000000000000000000000000000000000000000081526004016103ac90610f6d565b60405180910390fd5b50610498565b6000816080015173ffffffffffffffffffffffffffffffffffffffff166323b872dd33308560a001516040518463ffffffff1660e01b815260040161040293929190610f14565b602060405180830381600087803b15801561041c57600080fd5b505af1158015610430573d6000803e3d6000fd5b505050506040513d601f19601f820116820180604052508101906104549190610d0a565b905080610496576040517f08c379a000000000000000000000000000000000000000000000000000000000815260040161048d90610f8d565b60405180910390fd5b505b60018160c0019015159081151581525050806000808481526020019081526020016000206000820151816000015560208201518160010160006101000a81548173ffffffffffffffffffffffffffffffffffffffff021916908373ffffffffffffffffffffffffffffffffffffffff160217905550604082015181600201556060820151816003019080519060200190610533929190610b55565b5060808201518160040160006101000a81548173ffffffffffffffffffffffffffffffffffffffff021916908373ffffffffffffffffffffffffffffffffffffffff16021790555060a0820151816005015560c08201518160060160006101000a81548160ff0219169083151502179055509050505050565b60008060008381526020019081526020016000206040518060e0016040529081600082015481526020016001820160009054906101000a900473ffffffffffffffffffffffffffffffffffffffff1673ffffffffffffffffffffffffffffffffffffffff1673ffffffffffffffffffffffffffffffffffffffff16815260200160028201548152602001600382018054806020026020016040519081016040528092919081815260200182805480156106ba57602002820191906000526020600020905b8160009054906101000a900473ffffffffffffffffffffffffffffffffffffffff1673ffffffffffffffffffffffffffffffffffffffff1681526020019060010190808311610670575b505050505081526020016004820160009054906101000a900473ffffffffffffffffffffffffffffffffffffffff1673ffffffffffffffffffffffffffffffffffffffff1673ffffffffffffffffffffffffffffffffffffffff168152602001600582015481526020016006820160009054906101000a900460ff16151515158152505090506000600167ffffffffffffffff811115610783577f4e487b7100000000000000000000000000000000000000000000000000000000600052604160045260246000fd5b6040519080825280602002602001820160405280156107b15781602001602082028036833780820191505090505b509050338160018460600151516107c89190611083565b815181106107ff577f4e487b7100000000000000000000000000000000000000000000000000000000600052603260045260246000fd5b602002602001019073ffffffffffffffffffffffffffffffffffffffff16908173ffffffffffffffffffffffffffffffffffffffff16815250506040518060e001604052808481526020013373ffffffffffffffffffffffffffffffffffffffff16815260200183604001518152602001828152602001836080015173ffffffffffffffffffffffffffffffffffffffff1681526020018360a001518152602001600015158152509150816000808581526020019081526020016000206000820151816000015560208201518160010160006101000a81548173ffffffffffffffffffffffffffffffffffffffff021916908373ffffffffffffffffffffffffffffffffffffffff160217905550604082015181600201556060820151816003019080519060200190610933929190610b55565b5060808201518160040160006101000a81548173ffffffffffffffffffffffffffffffffffffffff021916908373ffffffffffffffffffffffffffffffffffffffff16021790555060a0820151816005015560c08201518160060160006101000a81548160ff021916908315150217905550905050505050565b505050565b606060008060008481526020019081526020016000206040518060e0016040529081600082015481526020016001820160009054906101000a900473ffffffffffffffffffffffffffffffffffffffff1673ffffffffffffffffffffffffffffffffffffffff1673ffffffffffffffffffffffffffffffffffffffff1681526020016002820154815260200160038201805480602002602001604051908101604052809291908181526020018280548015610ac257602002820191906000526020600020905b8160009054906101000a900473ffffffffffffffffffffffffffffffffffffffff1673ffffffffffffffffffffffffffffffffffffffff1681526020019060010190808311610a78575b505050505081526020016004820160009054906101000a900473ffffffffffffffffffffffffffffffffffffffff1673ffffffffffffffffffffffffffffffffffffffff1673ffffffffffffffffffffffffffffffffffffffff168152602001600582015481526020016006820160009054906101000a900460ff16151515158152505090508060600151915050919050565b828054828255906000526020600020908101928215610bce579160200282015b82811115610bcd5782518260006101000a81548173ffffffffffffffffffffffffffffffffffffffff021916908373ffffffffffffffffffffffffffffffffffffffff16021790555091602001919060010190610b75565b5b509050610bdb9190610bdf565b5090565b5b80821115610bf8576000816000905550600101610be0565b5090565b6000610c0f610c0a84610ffe565b610fcd565b905082815260208101848484011115610c2757600080fd5b610c3284828561112b565b509392505050565b600081359050610c4981611198565b92915050565b600081519050610c5e816111af565b92915050565b600081359050610c73816111c6565b92915050565b600082601f830112610c8a57600080fd5b8135610c9a848260208601610bfc565b91505092915050565b600080600060608486031215610cb857600080fd5b6000610cc686828701610c3a565b9350506020610cd786828701610c64565b925050604084013567ffffffffffffffff811115610cf457600080fd5b610d0086828701610c79565b9150509250925092565b600060208284031215610d1c57600080fd5b6000610d2a84828501610c4f565b91505092915050565b600060208284031215610d4557600080fd5b6000610d5384828501610c64565b91505092915050565b6000610d688383610d74565b60208301905092915050565b610d7d816110d9565b82525050565b610d8c816110d9565b82525050565b6000610d9d8261103e565b610da78185611056565b9350610db28361102e565b8060005b83811015610de3578151610dca8882610d5c565b9750610dd583611049565b925050600181019050610db6565b5085935050505092915050565b6000610dfd601483611072565b91507f4661696c656420746f2073656e642045746865720000000000000000000000006000830152602082019050919050565b6000610e3d601b83611072565b91507f4661696c656420746f2073656e64204552432d323020546f6b656e00000000006000830152602082019050919050565b6000610e7d602383611072565b91507f596f75206861766520616c72656164792072657175657374656420612072656660008301527f756e6400000000000000000000000000000000000000000000000000000000006020830152604082019050919050565b6000610ee3600083611067565b9150600082019050919050565b610ef981611121565b82525050565b6000610f0a82610ed6565b9150819050919050565b6000606082019050610f296000830186610d83565b610f366020830185610d83565b610f436040830184610ef0565b949350505050565b60006020820190508181036000830152610f658184610d92565b905092915050565b60006020820190508181036000830152610f8681610df0565b9050919050565b60006020820190508181036000830152610fa681610e30565b9050919050565b60006020820190508181036000830152610fc681610e70565b9050919050565b6000604051905081810181811067ffffffffffffffff82111715610ff457610ff3611169565b5b8060405250919050565b600067ffffffffffffffff82111561101957611018611169565b5b601f19601f8301169050602081019050919050565b6000819050602082019050919050565b600081519050919050565b6000602082019050919050565b600082825260208201905092915050565b600081905092915050565b600082825260208201905092915050565b600061108e82611121565b915061109983611121565b9250827fffffffffffffffffffffffffffffffffffffffffffffffffffffffffffffffff038211156110ce576110cd61113a565b5b828201905092915050565b60006110e482611101565b9050919050565b60008115159050919050565b6000819050919050565b600073ffffffffffffffffffffffffffffffffffffffff82169050919050565b6000819050919050565b82818337600083830152505050565b7f4e487b7100000000000000000000000000000000000000000000000000000000600052601160045260246000fd5b7f4e487b7100000000000000000000000000000000000000000000000000000000600052604160045260246000fd5b6111a1816110d9565b81146111ac57600080fd5b50565b6111b8816110eb565b81146111c357600080fd5b50565b6111cf816110f7565b81146111da57600080fd5b5056fea2646970667358221220e05267eca8d524479a8b1a9c6c78e534de637878bf32d84710adc21539f3309664736f6c63430008000033",
  "linkReferences": {},
  "deployedLinkReferences": {}
}